{
  "_format": "hh-sol-artifact-1",
  "contractName": "HodlVault",
  "sourceName": "contracts/HodlVault.sol",
  "abi": [
    {
      "inputs": [],
      "stateMutability": "nonpayable",
      "type": "constructor"
    },
    {
      "inputs": [],
      "name": "ReentrancyGuardReentrantCall",
      "type": "error"
    },
    {
      "inputs": [
        {
          "internalType": "address",
          "name": "token",
          "type": "address"
        }
      ],
      "name": "SafeERC20FailedOperation",
      "type": "error"
    },
    {
      "anonymous": false,
      "inputs": [
        {
          "indexed": true,
          "internalType": "uint256",
          "name": "lockId",
          "type": "uint256"
        },
        {
          "indexed": true,
          "internalType": "address",
          "name": "user",
          "type": "address"
        },
        {
          "indexed": true,
          "internalType": "address",
          "name": "token",
          "type": "address"
        },
        {
          "indexed": false,
          "internalType": "uint256",
          "name": "amount",
          "type": "uint256"
        }
      ],
      "name": "LockClaimed",
      "type": "event"
    },
    {
      "anonymous": false,
      "inputs": [
        {
          "indexed": true,
          "internalType": "uint256",
          "name": "lockId",
          "type": "uint256"
        },
        {
          "indexed": true,
          "internalType": "address",
          "name": "user",
          "type": "address"
        },
        {
          "indexed": true,
          "internalType": "address",
          "name": "token",
          "type": "address"
        },
        {
          "indexed": false,
          "internalType": "uint256",
          "name": "amount",
          "type": "uint256"
        },
        {
          "indexed": false,
          "internalType": "uint256",
          "name": "lockTime",
          "type": "uint256"
        },
        {
          "indexed": false,
          "internalType": "uint256",
          "name": "unlockTime",
          "type": "uint256"
        }
      ],
      "name": "LockCreated",
      "type": "event"
    },
    {
      "inputs": [],
      "name": "ONE_DAY",
      "outputs": [
        {
          "internalType": "uint256",
          "name": "",
          "type": "uint256"
        }
      ],
      "stateMutability": "view",
      "type": "function"
    },
    {
      "inputs": [],
      "name": "ONE_MONTH",
      "outputs": [
        {
          "internalType": "uint256",
          "name": "",
          "type": "uint256"
        }
      ],
      "stateMutability": "view",
      "type": "function"
    },
    {
      "inputs": [],
      "name": "ONE_YEAR",
      "outputs": [
        {
          "internalType": "uint256",
          "name": "",
          "type": "uint256"
        }
      ],
      "stateMutability": "view",
      "type": "function"
    },
    {
      "inputs": [],
      "name": "SIX_MONTHS",
      "outputs": [
        {
          "internalType": "uint256",
          "name": "",
          "type": "uint256"
        }
      ],
      "stateMutability": "view",
      "type": "function"
    },
    {
      "inputs": [],
      "name": "TEN_YEARS",
      "outputs": [
        {
          "internalType": "uint256",
          "name": "",
          "type": "uint256"
        }
      ],
      "stateMutability": "view",
      "type": "function"
    },
    {
      "inputs": [],
      "name": "THREE_YEARS",
      "outputs": [
        {
          "internalType": "uint256",
          "name": "",
          "type": "uint256"
        }
      ],
      "stateMutability": "view",
      "type": "function"
    },
    {
      "inputs": [
        {
          "internalType": "uint256",
          "name": "lockId",
          "type": "uint256"
        }
      ],
      "name": "claimTokens",
      "outputs": [],
      "stateMutability": "nonpayable",
      "type": "function"
    },
    {
      "inputs": [
        {
          "internalType": "address",
          "name": "user",
          "type": "address"
        }
      ],
      "name": "getActiveLocks",
      "outputs": [
        {
          "components": [
            {
              "internalType": "address",
              "name": "token",
              "type": "address"
            },
            {
              "internalType": "uint256",
              "name": "amount",
              "type": "uint256"
            },
            {
              "internalType": "uint256",
              "name": "lockTime",
              "type": "uint256"
            },
            {
              "internalType": "uint256",
              "name": "unlockTime",
              "type": "uint256"
            },
            {
              "internalType": "bool",
              "name": "claimed",
              "type": "bool"
            }
          ],
          "internalType": "struct HodlVault.Lock[]",
          "name": "",
          "type": "tuple[]"
        }
      ],
      "stateMutability": "view",
      "type": "function"
    },
    {
      "inputs": [
        {
          "internalType": "uint256",
          "name": "lockId",
          "type": "uint256"
        }
      ],
      "name": "getLockById",
      "outputs": [
        {
          "components": [
            {
              "internalType": "address",
              "name": "token",
              "type": "address"
            },
            {
              "internalType": "uint256",
              "name": "amount",
              "type": "uint256"
            },
            {
              "internalType": "uint256",
              "name": "lockTime",
              "type": "uint256"
            },
            {
              "internalType": "uint256",
              "name": "unlockTime",
              "type": "uint256"
            },
            {
              "internalType": "bool",
              "name": "claimed",
              "type": "bool"
            }
          ],
          "internalType": "struct HodlVault.Lock",
          "name": "",
          "type": "tuple"
        }
      ],
      "stateMutability": "view",
      "type": "function"
    },
    {
      "inputs": [],
      "name": "getStats",
      "outputs": [
        {
          "internalType": "uint256",
          "name": "totalLocksCount",
          "type": "uint256"
        },
        {
          "internalType": "uint256",
          "name": "totalUsers",
          "type": "uint256"
        },
        {
          "internalType": "uint256",
          "name": "currentlyLocked",
          "type": "uint256"
        }
      ],
      "stateMutability": "view",
      "type": "function"
    },
    {
      "inputs": [
        {
          "internalType": "address",
          "name": "user",
          "type": "address"
        }
      ],
      "name": "getUserLocks",
      "outputs": [
        {
          "components": [
            {
              "internalType": "address",
              "name": "token",
              "type": "address"
            },
            {
              "internalType": "uint256",
              "name": "amount",
              "type": "uint256"
            },
            {
              "internalType": "uint256",
              "name": "lockTime",
              "type": "uint256"
            },
            {
              "internalType": "uint256",
              "name": "unlockTime",
              "type": "uint256"
            },
            {
              "internalType": "bool",
              "name": "claimed",
              "type": "bool"
            }
          ],
          "internalType": "struct HodlVault.Lock[]",
          "name": "",
          "type": "tuple[]"
        }
      ],
      "stateMutability": "view",
      "type": "function"
    },
    {
      "inputs": [
        {
          "internalType": "uint256",
          "name": "lockId",
          "type": "uint256"
        }
      ],
      "name": "isClaimable",
      "outputs": [
        {
          "internalType": "bool",
          "name": "",
          "type": "bool"
        }
      ],
      "stateMutability": "view",
      "type": "function"
    },
    {
      "inputs": [],
      "name": "lockIdCounter",
      "outputs": [
        {
          "internalType": "uint256",
          "name": "",
          "type": "uint256"
        }
      ],
      "stateMutability": "view",
      "type": "function"
    },
    {
      "inputs": [
        {
          "internalType": "uint256",
          "name": "",
          "type": "uint256"
        }
      ],
      "name": "lockIndex",
      "outputs": [
        {
          "internalType": "uint256",
          "name": "",
          "type": "uint256"
        }
      ],
      "stateMutability": "view",
      "type": "function"
    },
    {
      "inputs": [
        {
          "internalType": "uint256",
          "name": "",
          "type": "uint256"
        }
      ],
      "name": "lockOwner",
      "outputs": [
        {
          "internalType": "address",
          "name": "",
          "type": "address"
        }
      ],
      "stateMutability": "view",
      "type": "function"
    },
    {
      "inputs": [
        {
          "internalType": "address",
          "name": "token",
          "type": "address"
        },
        {
          "internalType": "uint256",
          "name": "amount",
          "type": "uint256"
        },
        {
          "internalType": "uint256",
          "name": "duration",
          "type": "uint256"
        }
      ],
      "name": "lockTokens",
      "outputs": [
        {
          "internalType": "uint256",
          "name": "lockId",
          "type": "uint256"
        }
      ],
      "stateMutability": "nonpayable",
      "type": "function"
    },
    {
      "inputs": [],
      "name": "totalLocks",
      "outputs": [
        {
          "internalType": "uint256",
          "name": "",
          "type": "uint256"
        }
      ],
      "stateMutability": "view",
      "type": "function"
    },
    {
      "inputs": [
        {
          "internalType": "address",
          "name": "",
          "type": "address"
        }
      ],
      "name": "totalValueLocked",
      "outputs": [
        {
          "internalType": "uint256",
          "name": "",
          "type": "uint256"
        }
      ],
      "stateMutability": "view",
      "type": "function"
    },
    {
      "inputs": [
        {
          "internalType": "address",
          "name": "",
          "type": "address"
        },
        {
          "internalType": "uint256",
          "name": "",
          "type": "uint256"
        }
      ],
      "name": "userLocks",
      "outputs": [
        {
          "internalType": "address",
          "name": "token",
          "type": "address"
        },
        {
          "internalType": "uint256",
          "name": "amount",
          "type": "uint256"
        },
        {
          "internalType": "uint256",
          "name": "lockTime",
          "type": "uint256"
        },
        {
          "internalType": "uint256",
          "name": "unlockTime",
          "type": "uint256"
        },
        {
          "internalType": "bool",
          "name": "claimed",
          "type": "bool"
        }
      ],
      "stateMutability": "view",
      "type": "function"
    }
  ],
  "bytecode": "0x608060405234801561001057600080fd5b506001600055611022806100256000396000f3fe608060405234801561001057600080fd5b50600436106101215760003560e01c806389610a09116100ad578063aa33fedb11610071578063aa33fedb14610291578063afae883e146102d8578063ba579c74146102e1578063c59d4847146102eb578063d2d18eac1461030a57600080fd5b806389610a09146101ef578063a25983e514610212578063a30deb0a14610225578063a3c3313a14610266578063a6b35d701461027157600080fd5b806325d70ee6116100f457806325d70ee61461019257806346e04a2f1461019d5780634aff33c8146101b257806361496d59146101d2578063863e76db146101e557600080fd5b806308f124701461012657806316d3bfbb1461014f57806320988cef1461016857806323a35de914610172575b600080fd5b610139610134366004610e23565b610313565b6040516101469190610e74565b60405180910390f35b61015a6301e1338081565b604051908152602001610146565b61015a62278d0081565b610185610180366004610e9e565b610414565b6040516101469190610ec0565b61015a6312cc030081565b6101b06101ab366004610e23565b6104c3565b005b61015a6101c0366004610e9e565b60066020526000908152604090205481565b6101856101e0366004610e9e565b6106aa565b61015a6201518081565b6102026101fd366004610e23565b610876565b6040519015158152602001610146565b61015a610220366004610f0e565b61094d565b61024e610233366004610e23565b6003602052600090815260409020546001600160a01b031681565b6040516001600160a01b039091168152602001610146565b61015a6305a39a8081565b61015a61027f366004610e23565b60046020526000908152604090205481565b6102a461029f366004610f41565b610bfe565b604080516001600160a01b03909616865260208601949094529284019190915260608301521515608082015260a001610146565b61015a60025481565b61015a62ed4e0081565b6005546040805191825260006020830181905290820152606001610146565b61015a60055481565b61031b610de9565b6000828152600360205260409020546001600160a01b03168061037b5760405162461bcd60e51b8152602060048201526013602482015272131bd8dac8191bd95cc81b9bdd08195e1a5cdd606a1b60448201526064015b60405180910390fd5b6000838152600460209081526040808320546001600160a01b038516845260019092529091208054829081106103b3576103b3610f6b565b60009182526020918290206040805160a081018252600590930290910180546001600160a01b031683526001810154938301939093526002830154908201526003820154606082015260049091015460ff1615156080820152949350505050565b6001600160a01b0381166000908152600160209081526040808320805482518185028101850190935280835260609492939192909184015b828210156104b85760008481526020908190206040805160a0810182526005860290920180546001600160a01b0316835260018082015484860152600282015492840192909252600381015460608401526004015460ff1615156080830152908352909201910161044c565b505050509050919050565b6104cb610c59565b6000818152600360205260409020546001600160a01b031633146105225760405162461bcd60e51b815260206004820152600e60248201526d2737ba103637b1b59037bbb732b960911b6044820152606401610372565b6000818152600460209081526040808320543384526001909252822080549192918390811061055357610553610f6b565b60009182526020909120600590910201600481015490915060ff16156105ad5760405162461bcd60e51b815260206004820152600f60248201526e105b1c9958591e4818db185a5b5959608a1b6044820152606401610372565b80600301544210156105f05760405162461bcd60e51b815260206004820152600c60248201526b14dd1a5b1b081b1bd8dad95960a21b6044820152606401610372565b60048101805460ff1916600190811790915581015481546001600160a01b03166000908152600660205260408120805490919061062e908490610f97565b909155505060018101548154610651916001600160a01b03909116903390610c83565b805460018201546040519081526001600160a01b0390911690339085907f187534a6e0f44c67d7a5fe74d2247ec6af7cdafb7c330d30d83679080f1a9a349060200160405180910390a450506106a76001600055565b50565b6001600160a01b0381166000908152600160209081526040808320805482518185028101850190935280835260609493849084015b8282101561074b5760008481526020908190206040805160a0810182526005860290920180546001600160a01b0316835260018082015484860152600282015492840192909252600381015460608401526004015460ff161515608083015290835290920191016106df565b5050505090506000805b82518110156107965782818151811061077057610770610f6b565b60200260200101516080015161078e578161078a81610faa565b9250505b600101610755565b5060008167ffffffffffffffff8111156107b2576107b2610fc3565b6040519080825280602002602001820160405280156107eb57816020015b6107d8610de9565b8152602001906001900390816107d05790505b5090506000805b845181101561086b5784818151811061080d5761080d610f6b565b6020026020010151608001516108635784818151811061082f5761082f610f6b565b602002602001015183838151811061084957610849610f6b565b6020026020010181905250818061085f90610faa565b9250505b6001016107f2565b509095945050505050565b6000818152600360205260408120546001600160a01b03168061089c5750600092915050565b6000838152600460209081526040808320546001600160a01b0385168452600190925282208054919291839081106108d6576108d6610f6b565b60009182526020918290206040805160a081018252600590930290910180546001600160a01b031683526001810154938301939093526002830154908201526003820154606082015260049091015460ff161580156080830181905291925090610944575080606001514210155b95945050505050565b60006001600160a01b03841661099d5760405162461bcd60e51b8152602060048201526015602482015274496e76616c696420746f6b656e206164647265737360581b6044820152606401610372565b600083116109ed5760405162461bcd60e51b815260206004820181905260248201527f416d6f756e74206d7573742062652067726561746572207468616e207a65726f6044820152606401610372565b6109f682610ce7565b610a3a5760405162461bcd60e51b815260206004820152601560248201527424b73b30b634b2103637b1b590323ab930ba34b7b760591b6044820152606401610372565b610a4f6001600160a01b038516333086610d39565b60006040518060a00160405280866001600160a01b031681526020018581526020014281526020018442610a839190610fd9565b8152600060209091018190526002805492935090610aa083610faa565b9091555033600081815260016020818152604080842080548085018255818652838620895160059092020180546001600160a01b0319166001600160a01b0390921691909117815592880151838501559087015160028301556060870151600383015560808701516004909201805460ff191692151592909217909155928252915492945091610b309190610f97565b600084815260036020908152604080832080546001600160a01b03191633179055600490915281208290556005805492935090610b6c83610faa565b90915550506001600160a01b03861660009081526006602052604081208054879290610b99908490610fd9565b90915550506001600160a01b03861633847f22b6b8a4d5a914ae1011461bc63aae897aa95e59716646efa0f307cca8a1ae638842610bd78a82610fd9565b6040805193845260208401929092529082015260600160405180910390a450509392505050565b60016020528160005260406000208181548110610c1a57600080fd5b6000918252602090912060059091020180546001820154600283015460038401546004909401546001600160a01b039093169550909350919060ff1685565b600260005403610c7c57604051633ee5aeb560e01b815260040160405180910390fd5b6002600055565b6040516001600160a01b03838116602483015260448201839052610ce291859182169063a9059cbb906064015b604051602081830303815290604052915060e01b6020820180516001600160e01b038381831617835250505050610d78565b505050565b600062015180821480610cfc575062278d0082145b80610d09575062ed4e0082145b80610d1757506301e1338082145b80610d2557506305a39a8082145b80610d3357506312cc030082145b92915050565b6040516001600160a01b038481166024830152838116604483015260648201839052610d729186918216906323b872dd90608401610cb0565b50505050565b600080602060008451602086016000885af180610d9b576040513d6000823e3d81fd5b50506000513d91508115610db3578060011415610dc0565b6001600160a01b0384163b155b15610d7257604051635274afe760e01b81526001600160a01b0385166004820152602401610372565b6040518060a0016040528060006001600160a01b031681526020016000815260200160008152602001600081526020016000151581525090565b600060208284031215610e3557600080fd5b5035919050565b80516001600160a01b031682526020808201519083015260408082015190830152606080820151908301526080908101511515910152565b60a08101610d338284610e3c565b80356001600160a01b0381168114610e9957600080fd5b919050565b600060208284031215610eb057600080fd5b610eb982610e82565b9392505050565b6020808252825182820181905260009190848201906040850190845b81811015610f0257610eef838551610e3c565b9284019260a09290920191600101610edc565b50909695505050505050565b600080600060608486031215610f2357600080fd5b610f2c84610e82565b95602085013595506040909401359392505050565b60008060408385031215610f5457600080fd5b610f5d83610e82565b946020939093013593505050565b634e487b7160e01b600052603260045260246000fd5b634e487b7160e01b600052601160045260246000fd5b81810381811115610d3357610d33610f81565b600060018201610fbc57610fbc610f81565b5060010190565b634e487b7160e01b600052604160045260246000fd5b80820180821115610d3357610d33610f8156fea2646970667358221220d7a61d38589e2a454a97ebd34ac7dbcd1e2441f1b7a7aa4501d21ab6a814eeb464736f6c63430008180033",
  "linkReferences": {},
  "deployedLinkReferences": {}
}